:20010000210008C30601C5D5E5DDE5FDE5ED73637EF3AFD31732627EE521007E11017E01D5
:20012000610077EDB0E1E5DDE1FD21007ECDEC02CDE302CDE302CDE302FD360681FD360765
:2001400081CDE302CDE302CDE302FD21007EDD21007ECD9D01DD210E7ECD9D01DD211C7EF8
:20016000CD9D01DD212A7ECD9D01DD21387ECD9D01DD21467ECD9D01DD21547ECD9D01CDAF
:200180001303CD6703DB1F07D24E013E07D317FBED7B637EFDE1DDE1E1D1C1B7C9DDCB083E
:2001A00046DD7E03C2B301DD8607FE7FDAC501AFC3C501DD8606FE7FDAC501DDCB067E3E76
:2001C0007FCAC501AFDD770321CA0606004F097EDD7702DD3504C0DD6E09DD660A7E2306C9
:2001E000004E23DD7509DD740AFE48DA1C02FE50DA8802CA9E02FE52CAAB02FE53CAB402E6
:20020000FE51CAC302FE54CAD102FE55CAD702FE56CADD02FEFFCA8B01C3D70121000022ED
:20022000047F220A7F22107FDD7104874F214A0709DD5E00DD56017EDD77002366DD740120
:200240006FB7ED52C24E02DDCB0846C28302CB3979FE483E00D25D0279D61CED44DDCB066E
:200260007E0E00CA7802DD86054FFE7FDA78020E7FFEC0DA78020E00DD710321CA06097EB0
:20028000DD7702DDCB08C6C9DDE5E1673E2ABD7CCA1C02DDE5DD212A7ECD1C02DDE1DDCB7D
:2002A00008860C0DCAD701DD7104C9DD750BDD740CC3D701DD7E0BDD7709DD7E0CDD770AFD
:2002C000C3D70179878787C667FE7FDAD0023E7F4FDD7105C3D701DD7106C3D701DD7107E1
:2002E000C3D701DD23DD23010E00FD09FD360401FD360571FD3606FDFD3607F7DD4E00DDFE
:200300004601E50978B1200321E807FD7509FD740AE1C921627E7EEE017711007FDD210039
:200320007EFD21547ECD4403DD210E7EFD21467ECD4403DD211C7EFD21387ECD4403212AF0
:200340007EC35F03DDE5E1FD7E03B7CA5F03DD7E03B7CA5C033A627EB7CA5F03FDE5E101F7
:200360000400EDB01313C9CD5406D81148061C1401047F21057F0AB6CAAB030E0A2E0B0AA3
:20038000B6CAB4030E102E110AB6CABD032A047F2B22047F2A0A7F2B220A7F2A107F2B2273
:2003A000107F1DC2700315C27003C90E0A2E0B0AB6CAB4030E102E110AB6CABD0300000010
:2003C0000000000000000000D9AF01F7FFDD21007FCDF603DD21067FCDF603DD210C7FCDBC
:2003E000F603CD3004D901F7FF1D15EB09EBD2AA031C14C37003DD6E04DD660509CB7CCA8C
:200400001904DDBE02D22B04DD7E02DD5E00DD560119DD7504DD7405C9DDE5DDE1DDE5DDA8
:20042000E100000000000000C312040000C30B04FEFFDA350416005F214D05B7ED52B73A51
:20044000E707473AE6072001780E18ED79E900000000000000000000000000000000000032
:2004600000000000000000000000000000000000000000000000000000000000000000007C
:2004800000000000000000000000000000000000000000000000000000000000000000005C
:2004A00000000000000000000000000000000000000000000000000000000000000000003C
:2004C00000000000000000000000000000000000000000000000000000000000000000001C
:2004E0000000000000000000000000000000000000000000000000000000000000000000FC
:200500000000000000000000000000000000000000000000000000000000000000000000DB
:200520000000000000000000000000000000000000000000000000000000000000000000BB
:2005400000000000000000000000000000ED4121540519E9000000000000000000000000F1
:2005600000000000000000000000000000000000000000000000000000000000000000007B
:2005800000000000000000000000000000000000000000000000000000000000000000005B
:2005A00000000000000000000000000000000000000000000000000000000000000000003B
:2005C00000000000000000000000000000000000000000000000000000000000000000001B
:2005E0000000000000000000000000000000000000000000000000000000000000000000FB
:200600000000000000000000000000000000000000000000000000000000000000000000DA
:200620000000000000000000000000000000000000000000000000000000000000000000BA
:2006400000000000000000000000000000000000000000C93A157FB7C8DD21127F21AD2007
:20066000DD5E00DD56017BB2CA79061B2B7DB4C266063AE707D31837C90000000000DD5EA2
:2006800000DD5601E521B8063A157F4F0600094ECB39E1D9545D632E0119191919197CD915
:2006A000B93E00DAA8063EC0EEC0D31801F8FF09CB7CC27206C36606000000000000000073
:2006C0000000000000000000000000010101010101010101010101010101020202020202FF
:2006E000020202020303030303030404040404050505050506060607070708080809090A58
:200700000A0B0B0C0C0D0D0E0E0F10111112131415161718191A1B1C1E1F20222325272817
:200720002A2C2E30323537393C3F4144474B4E5255595D61666A6F74797E848A90979DA470
:20074000ACB3BBC4CDD6DFE9F4FFEE03B703820351032203F502CC02A4027F025C023B022D
:200760001C02F701DC01C101A90191017B016601520140012E011E010E01FC00EE00E100E9
:20078000D400C900BD00B300A900A00097008F0087007E00770070006A0064005F005A006A
:2007A000550050004C00470044003F003B003800350032002F002D002A00280026002400AC
:2007C00022001F001E001C001B00190018001600150014001300120011004000200010006D
:0E07E000080004000200C000520050FF530049
:200800000E0058083C0FD412D412D412D4125020291028102610250C280429042604210497
:200820002904280424041F042804260422041D042604250221021C022102250228022D0242
:20084000310232022D02290232022D02290232022D0230022B02280230022B0228023002A2
:200860002B022E02290226022E02290226022E0229022D02250150012502210219022102BC
:2008800025022802350232022D02350232022D0235023201500132022D02290232022D0227
:2008A000290232022D02340230022B02340230022B023402300231022D02280231022D022A
:2008C000280231022D02350232022D02350232022D0235023201500132022D0229023202DB
:2008E0002D02290232022D02340230022B02340230022B023402300231022D0228023102EA
:20090000250128012D01310134013501370139012D0C3004320C340135033406300632048D
:200920002D04500429042B042D0C30042A012B0528062404261821042404260C24022602AD
:200940002906280624042506220621041F061D061C041A0821081F06210624042604210424
:20096000280421042904210429042B042D0C3004320C340135033406300632042D04500435
:2009800029042B042D0C30042A012B0528062404261821042404260C240226022906280675
:2009A00024042506220621041F061D061C041A0821081F0621062404260221021A042102E4
:2009C0001E02260221021E02260221021E02260221021A04290226022102290226022102CC
:2009E00029022102280224021F02280224021F02280224022601500126021D02260222026C
:200A00001D0226022202250221021C022102250228022D02310232022D02290232022D023C
:200A2000290232022D0230022B02280230022B02280230022B022E02290226022E022902D9
:200A400026022E0229022D0225015001250221021902210225022802350232022D023502C3
:200A600032022D0235023201500132022D02290232022D02290232022D02340230022B0244
:200A8000340230022B023402300231022D02280231022D02280231022D02350232022D0245
:200AA000350232022D0235023201500132022D02290232022D02290232022D0234023002FA
:200AC0002B02340230022B023402300231022D0228023102250128012D0131013401350113
:200AE000370139012D0C3004320C340135033406300632042D04500429042B042D0C300478
:200B00002A012B0528062404261821042404260C240226022906280624042506220621041C
:200B20001F061D061C041A0821081F062106240426042104280421042904210429042B0440
:200B40002D0C3004320C340135033406300632042D04500429042B042D0C30042A012B052E
:200B600028062404261821042404260C240226022906280624042506220621041F061D06CF
:200B80001C041A0821081F0621062404261750012608260628062A0350012A10250629064E
:200BA0002D042C062A062504260628062A0428062A062C042D042C042D08500150012D02FC
:200BC0002A0231022D022A0231022D0231022D022A022D022C02280225022102230750011F
:200BE0002302200221022302250629062D042C022A02280225022302210220041E021A0288
:200C000015021E021A0215021E021A0220021C02170220021C02170220021C0222021E02F8
:200C20001B0222021E021B0222021E022E022C022A022702220220021E0222022F06310649
:200C40003303500133102E0632063604350633062E042F0631063304310633063504360CF0
:200C60003A06360233023A02360233023A0236023A02360233023602350231022E022A0203
:200C80002C0750012C0229022A022C022E06320636043502330231022E022C022A02290421
:200CA000270223021E02270223021E022702230229022502200229022502200229022502D0
:200CC0002B02270224022B02270224022B0227022B02330230022B02330230022B0233023C
:200CE000270224021F02270224021F02270224015001240220021B02240220021B02240285
:200D00002002260222021D02260222021D0226022201500122021F021B0222021F021B027B
:200D200022021F0220021D02180220021D02180220021D0222021F021A0222021F021A02B5
:200D400022021F02240220021B02240220021B02240220021B02240220021B022402200272
:200D60001B022402240220021B02240220021B0224022002260222021D02260222021D0248
:200D80002602220223021F021A0223021F021A0223021F02260222021A02260222021A022D
:200DA00026022202240220021B02240220021B0224022002260222021D02260222021D02FF
:200DC00026022202270224021F02270224021F02270224022B02330230022B023302300270
:200DE0002B023302330230022B02330230022B0233023001500130022C02270230022C02C9
:200E0000270230022C0232022E02290232022E02290232022E0150012E022B0227022E02C1
:200E20002B0227022E022B022C02290224022C02290224022C0229022E022B0226022E02F3
:200E40002B0226022E022B0230022C02270230022C02270230022C02270230022C022702BC
:200E600030022C022702300230022C02270230022C02270230022C0232022E022902320282
:200E80002E02290232022E022F022B0226022F022B0226022F022B0232022E022902320266
:200EA0002E02290232022E0230022C02270230022C02270230022C0232022E02290232023E
:200EC0002E02290232022E0230022902240231022D022A022E0150012E022B0233022C0202
:200EE00027023402501050062E0C3104330C350136033506310633042E0450042A042C0433
:200F00002E0C31042B012C0529062504271822042504270C250227022A06290625042606E8
:200F20002306220420061E061D041B08220820062206250427042204290422042A0422043B
:200F40002A042C042E0C3104330C350136033506310633042E0450042A042C042E0C31041A
:200F60002B012C0529062504271822042504270C250227022A0629062504260623062204A8
:200F800020061E061D041B08220820062206250427202E0C3104330C35013603350631064C
:200FA00033042E0450042A042C042E0C31042B012C0529062504271822042504270C25020A
:200FC00027022A062906250426062306220420061E061D041B08220820062206250427048B
:200FE0002204290422042A0422042A042C042E0C3104330C350136033506310633042E04CE
:2010000050042A042C042E0C31042B012C0529062504271822042504270C250227022A06B9
:201020002906250426062306220420061E061D041B082208200622062504270222021B0442
:2010400022021F02270222021F02270222021F02270222021B04FF005020261024102210F8
:2010600021101D0750011D081C0750011C081A0750011A081907500119081A0426041A0283
:20108000210226041804240418021C0224041604220416021D0222041504210415021C024F
:2010A00021041A0426041A02210226041604220416021D0222041804240418021F02240416
:2010C0001504210415021C0221041A0426041A0221022604160422041602500222041804DB
:2010E00024041802500224041504210415041C041A0426041A0221022604160422041602B4
:201100001D022204180424041802500224041D0818021F021802240213041F0413021A02A7
:201120001F04150421041502500221041604220416021D0222041604220416021D02220486
:2011400016042204160250022204180424041802500224041504210415021C022104150436
:20116000210415021C022104210C1D04240C1F041A0426041A02210226041A0421041A023F
:20118000210229041A0426041A02210226041604220416021D022204180424041802500201
:2011A00024041D0818021F021802240213041F0413021A021F04150421041502500221040D
:2011C0001604220416021D0222041604220416021D022204160422041602500222041804E9
:2011E00024041802500224041504210415021C0221041504210415021C022104210C1D04B5
:20120000240C1F041A0426041A02210226041A0421041A02210250041A0426041A0221026D
:2012200026041804240418021C0224041604220416021D0222041504210415021C022104AB
:201240001A0426041A02210226041804240418021C0224041604220416021D022204150483
:20126000210415021C0221041A0426041A02210226041604220416021D022204180424045D
:2012800018021F0224041504210415021C0221041A0426041A02210226041604220416024A
:2012A00050022204180424041802500224041504210415041C041A0426041A0221022604B6
:2012C0001604220416021D022204180424041802500224041D0818021F02180224021304E2
:2012E0001F0413021A021F04150421041502500221041604220416021D02220416042204CE
:2013000016021D022204160422041602500222041804240418025002240415042104150273
:201320001C0221041504210415021C022104210C1D04240C1F041A0426041A022102260480
:201340001A0421041A02210229041A0426041A02210226041604220416021D022204180474
:2013600024041802500224041D0818021F021802240213041F0413021A021F041504210445
:201380001502500221041604220416021D0222041604220416021D0222041604220416022D
:2013A00050022204180424041802500224041504210415021C0221041504210415021C02D2
:2013C0002104210C1D04240C1F041A1850081A10231020101A0F50011A101C101E102510FD
:2013E0001A10231020101A0F50011A101C10220F50012210171019101610170F50011710C8
:2014000019101B102210171019101610170F50011710191018101F102404300424022B0203
:20142000300420042C04200227022C0422042E04220229022E041F042B041F0226022B0406
:201440001D0429041D02240229041F042B041F0250022B0420042C04200227022C042004E5
:201460002C04200227022C0420042C04200227022C0422042E04220229022E041F042B04C7
:201480001F0226022B041F042B041F0226022B0420042C04200227022C0422042E042202BF
:2014A00029022E042404300424022B0230042404300424022B023003500130102C10291004
:2014C0002B1029102B102C202010320F500132101F102010221029062A062B062C062D0885
:2014E00050101B0427041B02220227041704230417021E0223041904250419025002250458
:201500001E0819022002190225021404200414021B022004160422041602500222041704A8
:20152000230417021E0223041704230417021E022304170423041702500223041904250468
:201540001902500225041604220416021D0222041604220416021D0222035001220C1E041B
:20156000250C20041B0427041B02220227041B0422041B0222022A041B0427041B02220221
:2015800027041704230417021E022304190425041902500225041E081902200219022502FD
:2015A0001404200414021B022004160422041602500222041704230417021E02230417040B
:2015C000230417021E02230417042304170250022304190425041902500225041604220494
:2015E00016021D0222041604220416021D0222035001220C1E04250C20041B0427041B0295
:20160000220227041B0422041B02220250041B0427041B02220227041704230417021E0270
:201620002304190425041902500225041E0819022002190225021404200414021B0220046F
:20164000160422041602500222041704230417021E0223041704230417021E02230417045B
:201660002304170250022304190425041902500225041604220416021D02220416042204F8
:2016800016021D0222035001220C1E04250C20041B0427041B02220227041B0422041B02E0
:2016A00022022A041B0427041B02220227041704230417021E0223041904250419025002CD
:2016C00025041E0819022002190225021404200414021B02200416042204160250022204D9
:2016E0001704230417021E0223041704230417021E022304170423041702500223041904B5
:2017000025041902500225041604220416021D0222041604220416021D0222035001220C52
:201720001E04250C20041B0427041B02220227041B0427041B0222022704FF00502029101E
:20174000281026102510291028102610251021102810261025102910261028101C1029102A
:201760002610281025102D0C3004320C340135033406300632042D04500429042B042D0CEE
:2017800030042A012B0528062404261821042404260C240226022906280624042506220681
:2017A00021041F061D061C041A0821081F062106240426045004280450042904500350010E
:2017C00029042B042D0C3004320C340135033406300632042D04500429042B042D0C3004A1
:2017E0002A012B0528062404261821042404260C2402260229062806240425062206210430
:201800001F061D061C041A0821081F062106240426202110281026102510211028102610E8
:2018200025102910261028101C1029102610281025102D0C3004320C34013503340630063C
:2018400032042D04500429042B042D0C30042A012B0528062404261821042404260C240270
:2018600026022906280624042506220621041F061D061C041A0821081F06210624042604F2
:20188000500428045004260829042B042D0C3004320C340135033406300632042D045004A7
:2018A00029042B042D0C30042A012B0528062404261821042404260C240226022906280646
:2018C00024042506220621041F061D061C041A0821081F06210624041A1F50011A0F50013D
:2018E0001C1019101A0F50011A101C101E0F50011E101A101C1019101A0F50011A101C10C8
:201900001B0F50011B10171019101610170F5001171019101B0F50011B10171019101610C8
:20192000170F500117101910180F500118101B0F50011B101D101B101D101F102020201076
:201940001D101F101A101B101D101F20300F5001301032102E102C102E10301033023202F7
:20196000300C301032102F103210301032103006310632063306340850102E0C3104330C7E
:20198000350136033506310633042E0450042A042C042E0C31042B012C05290625042718E8
:2019A00022042504270C250227022A062906250426062306220420061E061D041B0822089A
:2019C00020062206250427045004290450042A04500350012A042C042E0C3104330C35017C
:2019E00036033506310633042E0450042A042C042E0C31042B012C05290625042718220498
:201A00002504270C250227022A062906250426062306220420061E061D041B082208200639
:201A20002206250427202E0C3104330C350136033506310633042E0450042A042C042E0C2A
:201A400031042B012C0529062504271822042504270C250227022A062906250426062306AE
:201A6000220420061E061D041B08220820062206250427045004290450042A04500350013F
:201A80002A042C042E0C3104330C350136033506310633042E0450042A042C042E0C3104CF
:201AA0002B012C0529062504271822042504270C250227022A06290625042606230622045D
:201AC00020061E061D041B0822082006220625042720FF005020501050105010500C500451
:201AE0005004500450045004500450045004500450045004500450045002500250025002AE
:201B00005002500250025002500250025002500250025002500250025002500250025002A5
:201B2000500250025002500250025002500250025002500250025002500250025002500285
:201B4000500250025002500250025002500250025002500250025002500250025002500265
:201B6000500250025002500250025002500250025002500250025002500250025002500245
:201B8000500250025002500250025002500250025002500250025002500250025002500225
:201BA000500250025002500250025002500250025002500250025002500250025002500205
:201BC00050015001500150015001500150015001500C5004500C50015003500650065004CD
:201BE0005004500450045004500C50045001500550065004501850045004500C5002500285
:201C000050065006500450065006500450065006500450085008500650065004500450046C
:201C2000500450045004500450045004500C5004500C500150035006500650045004500454
:201C400050045004500C50045001500550065004501850045004500C500250025006500620
:201C6000500450065006500450065006500450085008500650065004500250025004500216
:201C8000500250025002500250025002500250025002500450025002500250025002500222
:201CA000500250025002500250025002500250025002500250025002500250025002500204
:201CC0005002500250025002500250025002500250025002500250025002500250025002E4
:201CE0005002500250025002500250025002500250025002500250025002500250025002C4
:201D00005002500250025002500250025002500250025002500250025002500250025002A3
:201D2000500250025002500250025002500250025002500250025002500250025002500283
:201D4000500250025002500250025002500250025002500250025002500250025002500263
:201D6000500250025002500250025002500250025002500250025002500250025002500243
:201D800050025002500250025002500250015001500150015001500150015001500C50041F
:201DA000500C500150035006500650045004500450045004500C50045001500550065004D3
:201DC000501850045004500C5002500250065006500450065006500450065006500450089B
:201DE000500850065006500450045004500450045004500450045004500C5004500C50018E
:201E000050035006500650045004500450045004500C500450015005500650045018500463
:201E20005004500C5002500250065006500450065006500450065006500450085008500648
:201E400050065004501850085006500650045010500650065004500650065004500650060C
:201E600050045006500650045004500450085002500250025002500250025002500250022C
:201E8000500250025002500250025002500250085002500250025002500650065004500212
:201EA000500250025002500250025004500250025002500250025002500250025002500200
:201EC0005002500250025002500250025002500250025002500250025002500250025002E2
:201EE000500250025002500250025002500650065004501050065006500450065006500496
:201F0000500650065004500650065004500C5006500250025002500250025002500250027F
:201F2000500250025002500250025002500250085002500250025002500650065004500271
:201F400050025002500250025002500450025002500250025002500250025002500250025F
:201F6000500250025002500250025002500250025002500250025002500250025002500241
:201F8000500250025002500250025002500250025002500250025002500250025002500221
:201FA000500250025002500250025002500250025002500250025002500250025002500201
:201FC0005002500250025002500250025002500250025002500250025002500250025002E1
:201FE0005002500250025002500250025002500250025002500250025002500250025002C1
:202000005002500250025002500250025002500250025002500250025002500250025002A0
:20202000500250025002500250025002500250025002500250025002500250025002500280
:20204000500250025002500250025002500250025002500250025002500250025002500260
:20206000500250025002500250025002500250025002500250025002500250025002500240
:20208000500250025002500250025002500250025002500250025002500250025002500220
:2020A000500250025002500250025002500250025002500250025002500250025002500200
:2020C0005002500250025002500250025002500250025002500250025002500250025002E0
:2020E0005002500250025002500250025002500250025002500250025002500250025002C0
:2021000050025002500250025002500250025002500250025002500250025002500250029F
:2021200050025002500250025002500250025002500250025002500250025002500250027F
:2021400050025002500250025002500250025002500250025002500250025002500250025F
:2021600050025002500250025002500250025002500250025002500250025002500250023F
:2021800050025002500250105006500C5004500C50015003500650065004500450045004E7
:2021A0005004500C50045001500550065004501850045004500C50025002500650065004BB
:2021C0005006500650045006500650045008500850065006500450045004500450045004AB
:2021E000500450045004500C5004500C500150035006500650045004500450045004500C87
:2022000050045001500550065004501850045004500C50025002500650065004500650065E
:202220005004500650065004500850085006500650045020500C5004500C50015003500624
:20224000500650045004500450045004500C50045001500550065004501850045004500C18
:2022600050025002500650065004500650065004500650065004500850085006500650040A
:2022800050045004500450045004500450045004500C5004500C50015003500650065004EE
:2022A0005004500450045004500C50045001500550065004501850045004500C50025002BE
:2022C0005006500650045006500650045006500650045008500850065006500450025002AA
:2022E000500450025002500250025002500250025002500250025004FF00FF00FF00FF0006
:00000001FF
